{
  "_format": "hh-sol-artifact-1",
  "contractName": "Escrow",
  "sourceName": "contracts/Escrow.sol",
  "abi": [
    {
      "inputs": [
        {
          "internalType": "address",
          "name": "_seller",
          "type": "address"
        },
        {
          "internalType": "address",
          "name": "_arbitrator",
          "type": "address"
        }
      ],
      "stateMutability": "nonpayable",
      "type": "constructor"
    },
    {
      "inputs": [],
      "name": "amount",
      "outputs": [
        {
          "internalType": "uint256",
          "name": "",
          "type": "uint256"
        }
      ],
      "stateMutability": "view",
      "type": "function"
    },
    {
      "inputs": [],
      "name": "arbitrator",
      "outputs": [
        {
          "internalType": "address",
          "name": "",
          "type": "address"
        }
      ],
      "stateMutability": "view",
      "type": "function"
    },
    {
      "inputs": [],
      "name": "buyer",
      "outputs": [
        {
          "internalType": "address",
          "name": "",
          "type": "address"
        }
      ],
      "stateMutability": "view",
      "type": "function"
    },
    {
      "inputs": [],
      "name": "confirmReceipt",
      "outputs": [],
      "stateMutability": "nonpayable",
      "type": "function"
    },
    {
      "inputs": [],
      "name": "deposit",
      "outputs": [],
      "stateMutability": "payable",
      "type": "function"
    },
    {
      "inputs": [],
      "name": "itemReceived",
      "outputs": [
        {
          "internalType": "bool",
          "name": "",
          "type": "bool"
        }
      ],
      "stateMutability": "view",
      "type": "function"
    },
    {
      "inputs": [],
      "name": "itemSent",
      "outputs": [
        {
          "internalType": "bool",
          "name": "",
          "type": "bool"
        }
      ],
      "stateMutability": "view",
      "type": "function"
    },
    {
      "inputs": [],
      "name": "refund",
      "outputs": [],
      "stateMutability": "nonpayable",
      "type": "function"
    },
    {
      "inputs": [],
      "name": "releaseFunds",
      "outputs": [],
      "stateMutability": "nonpayable",
      "type": "function"
    },
    {
      "inputs": [],
      "name": "seller",
      "outputs": [
        {
          "internalType": "address",
          "name": "",
          "type": "address"
        }
      ],
      "stateMutability": "view",
      "type": "function"
    },
    {
      "inputs": [],
      "name": "sent",
      "outputs": [],
      "stateMutability": "nonpayable",
      "type": "function"
    }
  ],
  "bytecode": "0x608060405234801561001057600080fd5b50604051610cb8380380610cb88339818101604052810190610032919061015e565b336000806101000a81548173ffffffffffffffffffffffffffffffffffffffff021916908373ffffffffffffffffffffffffffffffffffffffff16021790555081600160006101000a81548173ffffffffffffffffffffffffffffffffffffffff021916908373ffffffffffffffffffffffffffffffffffffffff16021790555080600260006101000a81548173ffffffffffffffffffffffffffffffffffffffff021916908373ffffffffffffffffffffffffffffffffffffffff160217905550505061019e565b600080fd5b600073ffffffffffffffffffffffffffffffffffffffff82169050919050565b600061012b82610100565b9050919050565b61013b81610120565b811461014657600080fd5b50565b60008151905061015881610132565b92915050565b60008060408385031215610175576101746100fb565b5b600061018385828601610149565b925050602061019485828601610149565b9150509250929050565b610b0b806101ad6000396000f3fe60806040526004361061009c5760003560e01c80636cc6cde1116100645780636cc6cde1146101505780637150d8ae1461017b5780637d94ad98146101a6578063aa8c217c146101bd578063c2bfccc0146101e8578063d0e30db0146101ff5761009c565b806308551a53146100a1578063590e1ae3146100cc5780635a11db8d146100e357806364ea507a1461010e57806369d8957514610139575b600080fd5b3480156100ad57600080fd5b506100b6610209565b6040516100c391906107b7565b60405180910390f35b3480156100d857600080fd5b506100e161022f565b005b3480156100ef57600080fd5b506100f8610399565b60405161010591906107ed565b60405180910390f35b34801561011a57600080fd5b506101236103ac565b60405161013091906107ed565b60405180910390f35b34801561014557600080fd5b5061014e6103bf565b005b34801561015c57600080fd5b506101656104d3565b60405161017291906107b7565b60405180910390f35b34801561018757600080fd5b506101906104f9565b60405161019d91906107b7565b60405180910390f35b3480156101b257600080fd5b506101bb61051d565b005b3480156101c957600080fd5b506101d26105e7565b6040516101df9190610821565b60405180910390f35b3480156101f457600080fd5b506101fd6105ed565b005b61020761069a565b005b600160009054906101000a900473ffffffffffffffffffffffffffffffffffffffff1681565b600260009054906101000a900473ffffffffffffffffffffffffffffffffffffffff1673ffffffffffffffffffffffffffffffffffffffff163373ffffffffffffffffffffffffffffffffffffffff1614806102ef575060008054906101000a900473ffffffffffffffffffffffffffffffffffffffff1673ffffffffffffffffffffffffffffffffffffffff163373ffffffffffffffffffffffffffffffffffffffff161480156102ee5750600460019054906101000a900460ff16155b5b61032e576040517f08c379a000000000000000000000000000000000000000000000000000000000815260040161032590610899565b60405180910390fd5b60008054906101000a900473ffffffffffffffffffffffffffffffffffffffff1673ffffffffffffffffffffffffffffffffffffffff166108fc6003549081150290604051600060405180830381858888f19350505050158015610396573d6000803e3d6000fd5b50565b600460009054906101000a900460ff1681565b600460019054906101000a900460ff1681565b600460019054906101000a900460ff16806104275750600260009054906101000a900473ffffffffffffffffffffffffffffffffffffffff1673ffffffffffffffffffffffffffffffffffffffff163373ffffffffffffffffffffffffffffffffffffffff16145b610466576040517f08c379a000000000000000000000000000000000000000000000000000000000815260040161045d90610905565b60405180910390fd5b600160009054906101000a900473ffffffffffffffffffffffffffffffffffffffff1673ffffffffffffffffffffffffffffffffffffffff166108fc6003549081150290604051600060405180830381858888f193505050501580156104d0573d6000803e3d6000fd5b50565b600260009054906101000a900473ffffffffffffffffffffffffffffffffffffffff1681565b60008054906101000a900473ffffffffffffffffffffffffffffffffffffffff1681565b60011515600460009054906101000a900460ff16151514801561058b575060008054906101000a900473ffffffffffffffffffffffffffffffffffffffff1673ffffffffffffffffffffffffffffffffffffffff163373ffffffffffffffffffffffffffffffffffffffff16145b6105ca576040517f08c379a00000000000000000000000000000000000000000000000000000000081526004016105c190610971565b60405180910390fd5b6001600460016101000a81548160ff021916908315150217905550565b60035481565b600160009054906101000a900473ffffffffffffffffffffffffffffffffffffffff1673ffffffffffffffffffffffffffffffffffffffff163373ffffffffffffffffffffffffffffffffffffffff161461067d576040517f08c379a0000000000000000000000000000000000000000000000000000000008152600401610674906109dd565b60405180910390fd5b6001600460006101000a81548160ff021916908315150217905550565b60008054906101000a900473ffffffffffffffffffffffffffffffffffffffff1673ffffffffffffffffffffffffffffffffffffffff163373ffffffffffffffffffffffffffffffffffffffff1614610728576040517f08c379a000000000000000000000000000000000000000000000000000000000815260040161071f90610a49565b60405180910390fd5b60006003541461076d576040517f08c379a000000000000000000000000000000000000000000000000000000000815260040161076490610ab5565b60405180910390fd5b34600381905550565b600073ffffffffffffffffffffffffffffffffffffffff82169050919050565b60006107a182610776565b9050919050565b6107b181610796565b82525050565b60006020820190506107cc60008301846107a8565b92915050565b60008115159050919050565b6107e7816107d2565b82525050565b600060208201905061080260008301846107de565b92915050565b6000819050919050565b61081b81610808565b82525050565b60006020820190506108366000830184610812565b92915050565b600082825260208201905092915050565b7f436f6e646974696f6e73206e6f74206d657420666f7220726566756e64000000600082015250565b6000610883601d8361083c565b915061088e8261084d565b602082019050919050565b600060208201905081810360008301526108b281610876565b9050919050565b7f436f6e646974696f6e73206e6f74206d657420666f722072656c656173650000600082015250565b60006108ef601e8361083c565b91506108fa826108b9565b602082019050919050565b6000602082019050818103600083015261091e816108e2565b9050919050565b7f4f6e6c792062757965722063616e20636f6e6669726d20726563656970740000600082015250565b600061095b601e8361083c565b915061096682610925565b602082019050919050565b6000602082019050818103600083015261098a8161094e565b9050919050565b7f4f6e6c792073656c6c65722063616e20636f6e6669726d2073656e7400000000600082015250565b60006109c7601c8361083c565b91506109d282610991565b602082019050919050565b600060208201905081810360008301526109f6816109ba565b9050919050565b7f4f6e6c792062757965722063616e206465706f73697400000000000000000000600082015250565b6000610a3360168361083c565b9150610a3e826109fd565b602082019050919050565b60006020820190508181036000830152610a6281610a26565b9050919050565b7f416d6f756e7420616c7265616479206465706f73697465640000000000000000600082015250565b6000610a9f60188361083c565b9150610aaa82610a69565b602082019050919050565b60006020820190508181036000830152610ace81610a92565b905091905056fea264697066735822122091e910462246842dfb5122043a2405b440b5e378ffd56a579948b00628ea50b064736f6c634300081b0033",
  "linkReferences": {},
  "deployedLinkReferences": {}
}