{
  "_format": "hh-sol-artifact-1",
  "contractName": "Counter",
  "sourceName": "contracts/Counter.sol",
  "abi": [
    {
      "inputs": [],
      "name": "count",
      "outputs": [
        {
          "internalType": "uint256",
          "name": "",
          "type": "uint256"
        }
      ],
      "stateMutability": "nonpayable",
      "type": "function"
    },
    {
      "inputs": [],
      "name": "getCount",
      "outputs": [
        {
          "internalType": "uint256",
          "name": "",
          "type": "uint256"
        }
      ],
      "stateMutability": "view",
      "type": "function"
    }
  ],
  "bytecode": "0x6080604052348015600f57600080fd5b5061039e8061001f6000396000f3fe608060405234801561001057600080fd5b50600436106100365760003560e01c806306661abd1461003b578063a87d942c14610059575b600080fd5b610043610077565b60405161005091906101e7565b60405180910390f35b6100616100d9565b60405161006e91906101e7565b60405180910390f35b600080600081548092919061008b90610231565b91905055506100d16040518060400160405280600f81526020017f4e6f772c20436f756e74657220697300000000000000000000000000000000008152506000546100e2565b600054905090565b60008054905090565b61017a82826040516024016100f8929190610309565b6040516020818303038152906040527fb60e72cc000000000000000000000000000000000000000000000000000000007bffffffffffffffffffffffffffffffffffffffffffffffffffffffff19166020820180517bffffffffffffffffffffffffffffffffffffffffffffffffffffffff838183161783525050505061017e565b5050565b6101958161018d6101986101b9565b63ffffffff16565b50565b60006a636f6e736f6c652e6c6f679050600080835160208501845afa505050565b6101c4819050919050565b6101cc610339565b565b6000819050919050565b6101e1816101ce565b82525050565b60006020820190506101fc60008301846101d8565b92915050565b7f4e487b7100000000000000000000000000000000000000000000000000000000600052601160045260246000fd5b600061023c826101ce565b91507fffffffffffffffffffffffffffffffffffffffffffffffffffffffffffffffff820361026e5761026d610202565b5b600182019050919050565b600081519050919050565b600082825260208201905092915050565b60005b838110156102b3578082015181840152602081019050610298565b60008484015250505050565b6000601f19601f8301169050919050565b60006102db82610279565b6102e58185610284565b93506102f5818560208601610295565b6102fe816102bf565b840191505092915050565b6000604082019050818103600083015261032381856102d0565b905061033260208301846101d8565b9392505050565b7f4e487b7100000000000000000000000000000000000000000000000000000000600052605160045260246000fdfea2646970667358221220c14481d1619f45c3992ee2cd9cc5e3bceab90ae6d89f7083aa6ee4b4b86741bb64736f6c634300081b0033",
  "linkReferences": {},
  "deployedLinkReferences": {}
}